{
  "_format": "hh-sol-artifact-1",
  "contractName": "EADtoken",
  "sourceName": "contracts/EADtoken.sol",
  "abi": [
    {
      "inputs": [],
      "stateMutability": "nonpayable",
      "type": "constructor"
    },
    {
      "anonymous": false,
      "inputs": [
        {
          "indexed": true,
          "internalType": "address",
          "name": "owner",
          "type": "address"
        },
        {
          "indexed": true,
          "internalType": "address",
          "name": "spender",
          "type": "address"
        },
        {
          "indexed": false,
          "internalType": "uint256",
          "name": "value",
          "type": "uint256"
        }
      ],
      "name": "Approval",
      "type": "event"
    },
    {
      "anonymous": false,
      "inputs": [
        {
          "indexed": true,
          "internalType": "address",
          "name": "from",
          "type": "address"
        },
        {
          "indexed": true,
          "internalType": "address",
          "name": "to",
          "type": "address"
        },
        {
          "indexed": false,
          "internalType": "uint256",
          "name": "value",
          "type": "uint256"
        }
      ],
      "name": "Transfer",
      "type": "event"
    },
    {
      "inputs": [
        {
          "internalType": "address",
          "name": "owner",
          "type": "address"
        },
        {
          "internalType": "address",
          "name": "spender",
          "type": "address"
        }
      ],
      "name": "allowance",
      "outputs": [
        {
          "internalType": "uint256",
          "name": "",
          "type": "uint256"
        }
      ],
      "stateMutability": "view",
      "type": "function"
    },
    {
      "inputs": [
        {
          "internalType": "address",
          "name": "spender",
          "type": "address"
        },
        {
          "internalType": "uint256",
          "name": "amount",
          "type": "uint256"
        }
      ],
      "name": "approve",
      "outputs": [
        {
          "internalType": "bool",
          "name": "",
          "type": "bool"
        }
      ],
      "stateMutability": "nonpayable",
      "type": "function"
    },
    {
      "inputs": [
        {
          "internalType": "address",
          "name": "account",
          "type": "address"
        }
      ],
      "name": "balanceOf",
      "outputs": [
        {
          "internalType": "uint256",
          "name": "",
          "type": "uint256"
        }
      ],
      "stateMutability": "view",
      "type": "function"
    },
    {
      "inputs": [],
      "name": "decimals",
      "outputs": [
        {
          "internalType": "uint8",
          "name": "",
          "type": "uint8"
        }
      ],
      "stateMutability": "view",
      "type": "function"
    },
    {
      "inputs": [
        {
          "internalType": "address",
          "name": "spender",
          "type": "address"
        },
        {
          "internalType": "uint256",
          "name": "subtractedValue",
          "type": "uint256"
        }
      ],
      "name": "decreaseAllowance",
      "outputs": [
        {
          "internalType": "bool",
          "name": "",
          "type": "bool"
        }
      ],
      "stateMutability": "nonpayable",
      "type": "function"
    },
    {
      "inputs": [
        {
          "internalType": "address",
          "name": "spender",
          "type": "address"
        },
        {
          "internalType": "uint256",
          "name": "addedValue",
          "type": "uint256"
        }
      ],
      "name": "increaseAllowance",
      "outputs": [
        {
          "internalType": "bool",
          "name": "",
          "type": "bool"
        }
      ],
      "stateMutability": "nonpayable",
      "type": "function"
    },
    {
      "inputs": [
        {
          "internalType": "address",
          "name": "to",
          "type": "address"
        }
      ],
      "name": "mintFT",
      "outputs": [],
      "stateMutability": "payable",
      "type": "function"
    },
    {
      "inputs": [],
      "name": "name",
      "outputs": [
        {
          "internalType": "string",
          "name": "",
          "type": "string"
        }
      ],
      "stateMutability": "view",
      "type": "function"
    },
    {
      "inputs": [],
      "name": "owner",
      "outputs": [
        {
          "internalType": "address",
          "name": "",
          "type": "address"
        }
      ],
      "stateMutability": "view",
      "type": "function"
    },
    {
      "inputs": [],
      "name": "symbol",
      "outputs": [
        {
          "internalType": "string",
          "name": "",
          "type": "string"
        }
      ],
      "stateMutability": "view",
      "type": "function"
    },
    {
      "inputs": [],
      "name": "totalSupply",
      "outputs": [
        {
          "internalType": "uint256",
          "name": "",
          "type": "uint256"
        }
      ],
      "stateMutability": "view",
      "type": "function"
    },
    {
      "inputs": [
        {
          "internalType": "address",
          "name": "to",
          "type": "address"
        },
        {
          "internalType": "uint256",
          "name": "amount",
          "type": "uint256"
        }
      ],
      "name": "transfer",
      "outputs": [
        {
          "internalType": "bool",
          "name": "",
          "type": "bool"
        }
      ],
      "stateMutability": "nonpayable",
      "type": "function"
    },
    {
      "inputs": [
        {
          "internalType": "address",
          "name": "from",
          "type": "address"
        },
        {
          "internalType": "address",
          "name": "to",
          "type": "address"
        },
        {
          "internalType": "uint256",
          "name": "amount",
          "type": "uint256"
        }
      ],
      "name": "transferFrom",
      "outputs": [
        {
          "internalType": "bool",
          "name": "",
          "type": "bool"
        }
      ],
      "stateMutability": "nonpayable",
      "type": "function"
    }
  ],
  "bytecode": "0x60806040523480156200001157600080fd5b506040518060400160405280600881526020017f454144746f6b656e0000000000000000000000000000000000000000000000008152506040518060400160405280600381526020017f454144000000000000000000000000000000000000000000000000000000000081525081600390805190602001906200009692919062000296565b508060049080519060200190620000af92919062000296565b505050620000cc33670de0b6b3a76400006200011360201b60201c565b33600560006101000a81548173ffffffffffffffffffffffffffffffffffffffff021916908373ffffffffffffffffffffffffffffffffffffffff160217905550620004f2565b600073ffffffffffffffffffffffffffffffffffffffff168273ffffffffffffffffffffffffffffffffffffffff16141562000186576040517f08c379a00000000000000000000000000000000000000000000000000000000081526004016200017d906200037e565b60405180910390fd5b6200019a600083836200028c60201b60201c565b8060026000828254620001ae9190620003ce565b92505081905550806000808473ffffffffffffffffffffffffffffffffffffffff1673ffffffffffffffffffffffffffffffffffffffff1681526020019081526020016000206000828254620002059190620003ce565b925050819055508173ffffffffffffffffffffffffffffffffffffffff16600073ffffffffffffffffffffffffffffffffffffffff167fddf252ad1be2c89b69c2b068fc378daa952ba7f163c4a11628f55a4df523b3ef836040516200026c9190620003a0565b60405180910390a362000288600083836200029160201b60201c565b5050565b505050565b505050565b828054620002a49062000435565b90600052602060002090601f016020900481019282620002c8576000855562000314565b82601f10620002e357805160ff191683800117855562000314565b8280016001018555821562000314579182015b8281111562000313578251825591602001919060010190620002f6565b5b50905062000323919062000327565b5090565b5b808211156200034257600081600090555060010162000328565b5090565b600062000355601f83620003bd565b91506200036282620004c9565b602082019050919050565b62000378816200042b565b82525050565b60006020820190508181036000830152620003998162000346565b9050919050565b6000602082019050620003b760008301846200036d565b92915050565b600082825260208201905092915050565b6000620003db826200042b565b9150620003e8836200042b565b9250827fffffffffffffffffffffffffffffffffffffffffffffffffffffffffffffffff0382111562000420576200041f6200046b565b5b828201905092915050565b6000819050919050565b600060028204905060018216806200044e57607f821691505b602082108114156200046557620004646200049a565b5b50919050565b7f4e487b7100000000000000000000000000000000000000000000000000000000600052601160045260246000fd5b7f4e487b7100000000000000000000000000000000000000000000000000000000600052602260045260246000fd5b7f45524332303a206d696e7420746f20746865207a65726f206164647265737300600082015250565b61166f80620005026000396000f3fe6080604052600436106100c25760003560e01c806370a082311161007f57806395d89b411161005957806395d89b4114610283578063a457c2d7146102ae578063a9059cbb146102eb578063dd62ed3e14610328576100c2565b806370a08231146101ff5780638da5cb5b1461023c5780638e8dc6bc14610267576100c2565b806306fdde03146100c7578063095ea7b3146100f257806318160ddd1461012f57806323b872dd1461015a578063313ce5671461019757806339509351146101c2575b600080fd5b3480156100d357600080fd5b506100dc610365565b6040516100e991906110a3565b60405180910390f35b3480156100fe57600080fd5b5061011960048036038101906101149190610e81565b6103f7565b6040516101269190611088565b60405180910390f35b34801561013b57600080fd5b5061014461041a565b60405161015191906111e5565b60405180910390f35b34801561016657600080fd5b50610181600480360381019061017c9190610e32565b610424565b60405161018e9190611088565b60405180910390f35b3480156101a357600080fd5b506101ac610453565b6040516101b99190611200565b60405180910390f35b3480156101ce57600080fd5b506101e960048036038101906101e49190610e81565b61045c565b6040516101f69190611088565b60405180910390f35b34801561020b57600080fd5b5061022660048036038101906102219190610dcd565b610493565b60405161023391906111e5565b60405180910390f35b34801561024857600080fd5b506102516104db565b60405161025e919061106d565b60405180910390f35b610281600480360381019061027c9190610dcd565b610501565b005b34801561028f57600080fd5b506102986105a6565b6040516102a591906110a3565b60405180910390f35b3480156102ba57600080fd5b506102d560048036038101906102d09190610e81565b610638565b6040516102e29190611088565b60405180910390f35b3480156102f757600080fd5b50610312600480360381019061030d9190610e81565b6106af565b60405161031f9190611088565b60405180910390f35b34801561033457600080fd5b5061034f600480360381019061034a9190610df6565b6106d2565b60405161035c91906111e5565b60405180910390f35b60606003805461037490611315565b80601f01602080910402602001604051908101604052809291908181526020018280546103a090611315565b80156103ed5780601f106103c2576101008083540402835291602001916103ed565b820191906000526020600020905b8154815290600101906020018083116103d057829003601f168201915b5050505050905090565b600080610402610759565b905061040f818585610761565b600191505092915050565b6000600254905090565b60008061042f610759565b905061043c85828561092c565b6104478585856109b8565b60019150509392505050565b60006012905090565b600080610467610759565b905061048881858561047985896106d2565b6104839190611237565b610761565b600191505092915050565b60008060008373ffffffffffffffffffffffffffffffffffffffff1673ffffffffffffffffffffffffffffffffffffffff168152602001908152602001600020549050919050565b600560009054906101000a900473ffffffffffffffffffffffffffffffffffffffff1681565b600560009054906101000a900473ffffffffffffffffffffffffffffffffffffffff1673ffffffffffffffffffffffffffffffffffffffff163373ffffffffffffffffffffffffffffffffffffffff1614610591576040517f08c379a000000000000000000000000000000000000000000000000000000000815260040161058890611145565b60405180910390fd5b6105a381670de0b6b3a7640000610c39565b50565b6060600480546105b590611315565b80601f01602080910402602001604051908101604052809291908181526020018280546105e190611315565b801561062e5780601f106106035761010080835404028352916020019161062e565b820191906000526020600020905b81548152906001019060200180831161061157829003601f168201915b5050505050905090565b600080610643610759565b9050600061065182866106d2565b905083811015610696576040517f08c379a000000000000000000000000000000000000000000000000000000000815260040161068d906111a5565b60405180910390fd5b6106a38286868403610761565b60019250505092915050565b6000806106ba610759565b90506106c78185856109b8565b600191505092915050565b6000600160008473ffffffffffffffffffffffffffffffffffffffff1673ffffffffffffffffffffffffffffffffffffffff16815260200190815260200160002060008373ffffffffffffffffffffffffffffffffffffffff1673ffffffffffffffffffffffffffffffffffffffff16815260200190815260200160002054905092915050565b600033905090565b600073ffffffffffffffffffffffffffffffffffffffff168373ffffffffffffffffffffffffffffffffffffffff1614156107d1576040517f08c379a00000000000000000000000000000000000000000000000000000000081526004016107c890611185565b60405180910390fd5b600073ffffffffffffffffffffffffffffffffffffffff168273ffffffffffffffffffffffffffffffffffffffff161415610841576040517f08c379a0000000000000000000000000000000000000000000000000000000008152600401610838906110e5565b60405180910390fd5b80600160008573ffffffffffffffffffffffffffffffffffffffff1673ffffffffffffffffffffffffffffffffffffffff16815260200190815260200160002060008473ffffffffffffffffffffffffffffffffffffffff1673ffffffffffffffffffffffffffffffffffffffff168152602001908152602001600020819055508173ffffffffffffffffffffffffffffffffffffffff168373ffffffffffffffffffffffffffffffffffffffff167f8c5be1e5ebec7d5bd14f71427d1e84f3dd0314c0f7b2291e5b200ac8c7c3b9258360405161091f91906111e5565b60405180910390a3505050565b600061093884846106d2565b90507fffffffffffffffffffffffffffffffffffffffffffffffffffffffffffffffff81146109b257818110156109a4576040517f08c379a000000000000000000000000000000000000000000000000000000000815260040161099b90611105565b60405180910390fd5b6109b18484848403610761565b5b50505050565b600073ffffffffffffffffffffffffffffffffffffffff168373ffffffffffffffffffffffffffffffffffffffff161415610a28576040517f08c379a0000000000000000000000000000000000000000000000000000000008152600401610a1f90611165565b60405180910390fd5b600073ffffffffffffffffffffffffffffffffffffffff168273ffffffffffffffffffffffffffffffffffffffff161415610a98576040517f08c379a0000000000000000000000000000000000000000000000000000000008152600401610a8f906110c5565b60405180910390fd5b610aa3838383610d99565b60008060008573ffffffffffffffffffffffffffffffffffffffff1673ffffffffffffffffffffffffffffffffffffffff16815260200190815260200160002054905081811015610b29576040517f08c379a0000000000000000000000000000000000000000000000000000000008152600401610b2090611125565b60405180910390fd5b8181036000808673ffffffffffffffffffffffffffffffffffffffff1673ffffffffffffffffffffffffffffffffffffffff16815260200190815260200160002081905550816000808573ffffffffffffffffffffffffffffffffffffffff1673ffffffffffffffffffffffffffffffffffffffff1681526020019081526020016000206000828254610bbc9190611237565b925050819055508273ffffffffffffffffffffffffffffffffffffffff168473ffffffffffffffffffffffffffffffffffffffff167fddf252ad1be2c89b69c2b068fc378daa952ba7f163c4a11628f55a4df523b3ef84604051610c2091906111e5565b60405180910390a3610c33848484610d9e565b50505050565b600073ffffffffffffffffffffffffffffffffffffffff168273ffffffffffffffffffffffffffffffffffffffff161415610ca9576040517f08c379a0000000000000000000000000000000000000000000000000000000008152600401610ca0906111c5565b60405180910390fd5b610cb560008383610d99565b8060026000828254610cc79190611237565b92505081905550806000808473ffffffffffffffffffffffffffffffffffffffff1673ffffffffffffffffffffffffffffffffffffffff1681526020019081526020016000206000828254610d1c9190611237565b925050819055508173ffffffffffffffffffffffffffffffffffffffff16600073ffffffffffffffffffffffffffffffffffffffff167fddf252ad1be2c89b69c2b068fc378daa952ba7f163c4a11628f55a4df523b3ef83604051610d8191906111e5565b60405180910390a3610d9560008383610d9e565b5050565b505050565b505050565b600081359050610db28161160b565b92915050565b600081359050610dc781611622565b92915050565b600060208284031215610ddf57600080fd5b6000610ded84828501610da3565b91505092915050565b60008060408385031215610e0957600080fd5b6000610e1785828601610da3565b9250506020610e2885828601610da3565b9150509250929050565b600080600060608486031215610e4757600080fd5b6000610e5586828701610da3565b9350506020610e6686828701610da3565b9250506040610e7786828701610db8565b9150509250925092565b60008060408385031215610e9457600080fd5b6000610ea285828601610da3565b9250506020610eb385828601610db8565b9150509250929050565b610ec68161128d565b82525050565b610ed58161129f565b82525050565b6000610ee68261121b565b610ef08185611226565b9350610f008185602086016112e2565b610f09816113a5565b840191505092915050565b6000610f21602383611226565b9150610f2c826113b6565b604082019050919050565b6000610f44602283611226565b9150610f4f82611405565b604082019050919050565b6000610f67601d83611226565b9150610f7282611454565b602082019050919050565b6000610f8a602683611226565b9150610f958261147d565b604082019050919050565b6000610fad600d83611226565b9150610fb8826114cc565b602082019050919050565b6000610fd0602583611226565b9150610fdb826114f5565b604082019050919050565b6000610ff3602483611226565b9150610ffe82611544565b604082019050919050565b6000611016602583611226565b915061102182611593565b604082019050919050565b6000611039601f83611226565b9150611044826115e2565b602082019050919050565b611058816112cb565b82525050565b611067816112d5565b82525050565b60006020820190506110826000830184610ebd565b92915050565b600060208201905061109d6000830184610ecc565b92915050565b600060208201905081810360008301526110bd8184610edb565b905092915050565b600060208201905081810360008301526110de81610f14565b9050919050565b600060208201905081810360008301526110fe81610f37565b9050919050565b6000602082019050818103600083015261111e81610f5a565b9050919050565b6000602082019050818103600083015261113e81610f7d565b9050919050565b6000602082019050818103600083015261115e81610fa0565b9050919050565b6000602082019050818103600083015261117e81610fc3565b9050919050565b6000602082019050818103600083015261119e81610fe6565b9050919050565b600060208201905081810360008301526111be81611009565b9050919050565b600060208201905081810360008301526111de8161102c565b9050919050565b60006020820190506111fa600083018461104f565b92915050565b6000602082019050611215600083018461105e565b92915050565b600081519050919050565b600082825260208201905092915050565b6000611242826112cb565b915061124d836112cb565b9250827fffffffffffffffffffffffffffffffffffffffffffffffffffffffffffffffff0382111561128257611281611347565b5b828201905092915050565b6000611298826112ab565b9050919050565b60008115159050919050565b600073ffffffffffffffffffffffffffffffffffffffff82169050919050565b6000819050919050565b600060ff82169050919050565b60005b838110156113005780820151818401526020810190506112e5565b8381111561130f576000848401525b50505050565b6000600282049050600182168061132d57607f821691505b6020821081141561134157611340611376565b5b50919050565b7f4e487b7100000000000000000000000000000000000000000000000000000000600052601160045260246000fd5b7f4e487b7100000000000000000000000000000000000000000000000000000000600052602260045260246000fd5b6000601f19601f8301169050919050565b7f45524332303a207472616e7366657220746f20746865207a65726f206164647260008201527f6573730000000000000000000000000000000000000000000000000000000000602082015250565b7f45524332303a20617070726f766520746f20746865207a65726f20616464726560008201527f7373000000000000000000000000000000000000000000000000000000000000602082015250565b7f45524332303a20696e73756666696369656e7420616c6c6f77616e6365000000600082015250565b7f45524332303a207472616e7366657220616d6f756e742065786365656473206260008201527f616c616e63650000000000000000000000000000000000000000000000000000602082015250565b7f4e6f7420746865206f776e657200000000000000000000000000000000000000600082015250565b7f45524332303a207472616e736665722066726f6d20746865207a65726f20616460008201527f6472657373000000000000000000000000000000000000000000000000000000602082015250565b7f45524332303a20617070726f76652066726f6d20746865207a65726f2061646460008201527f7265737300000000000000000000000000000000000000000000000000000000602082015250565b7f45524332303a2064656372656173656420616c6c6f77616e63652062656c6f7760008201527f207a65726f000000000000000000000000000000000000000000000000000000602082015250565b7f45524332303a206d696e7420746f20746865207a65726f206164647265737300600082015250565b6116148161128d565b811461161f57600080fd5b50565b61162b816112cb565b811461163657600080fd5b5056fea2646970667358221220fa76d4039581050d27f2f0b6dd4eb712a3934fd22cfa8105733327a1853cfd4764736f6c63430008040033",
  "linkReferences": {},
  "deployedLinkReferences": {}
}